:1000000000100010ED1600002D1700002F17000043
:1000100000000000000000000000000000000000E0
:100020000000000000000000000000003117000088
:10003000000000000000000033170000350200003F
:10004000391700003B1700003D1700003F17000064
:100050004117000043170000451700004717000034
:10006000491700004B1700004D1700004F17000004
:1000700051170000531700005517000057170000D4
:10008000591700005B1700005D1700005F170000A4
:1000900061170000D9010000651700006717000014
:1000A000691700006B1700006D1700006F17000044
:1000B0007117000073170000751700007717000014
:1000C00010B5064C2378002B07D1054B002B02D02E
:1000D000044800E000BF0123237010BDC4000010DD
:1000E00000000000DC2C0000084B10B5002B03D0F2
:1000F0000749084800E000BF07480368002B00D10B
:1001000010BD064B002BFBD09847F9E7000000001C
:10011000C8000010DC2C0000C0000010000000002F
:100120001122164B30B51A60154B103A1A60802315
:10013000144C5B01E56F2B43E3678324124B1A6079
:10014000124BDC604A3C1C605A609A60DA684734A3
:10015000A243DA60002803D00D4A10600D4A1170E6
:1001600000220D490A700D490A7007329A60063A5A
:100170005A6080220A4B92031A6030BDA4400440AA
:10018000A84004400480044098800440008000405F
:100190000000001004000010E0000010E10000105A
:1001A00000E100E0094B1A68022807D90849884293
:1001B0000AD90849814280414042013003218A43E3
:1001C00010431860186870470020F7E710C003401C
:1001D000002D3101005A62020C23F7B5104A9168D4
:1001E000194208D00F4953690D780F490E680F491D
:1001F0000120034200D1F7BD0B780133AB4200D19F
:1002000000230B480078834208D06F4608781468B2
:100210003018FC71FC79DBB204700B705369E7E7AE
:10022000008000400400001000000010E0000010FA
:10023000E1000010F8B52149214B1C680A68013221
:100240000A6020491A68086812181A601B689C42E4
:1002500003D91D4A1368013313600C2200241B4E7E
:100260001B4D31782B684A439A18934204D10024DD
:1002700033789C420CD3F8BD5968002906DD5968D3
:10028000091A59605968002900DC5C600C33ECE7FE
:100290000C2767432B68DB195A68002A04D19A6837
:1002A000002A01D09B6898472B68DF197B68002BD8
:1002B00001D13B687B600134DAE7C046740100106D
:1002C000E4000010EC000010E8000010F000001046
:1002D000780100100120704780239B0100204B60B3
:1002E00070470000F0B50D001E4B85B01B680293EF
:1002F0001D4B1B7803936B1A9A4204DCD043C01742
:10030000104005B0F0BD194B194E9C467368802013
:1003100001930023736063468003D867154B1C78F4
:10032000154B1878844219D01878029C2018007850
:100330001C780134E4B21C701C782700039CA7428F
:1003400001D100241C708024019BA40373600B4B1B
:100350001C60431CDAD028700135CCE701204042F4
:10036000F1E7C046000000100400001004E100E0C6
:1003700000800040E0000010E100001000E100E01B
:1003800070B50B0020250748D41A0C19002C01DC8D
:10039000100070BD1C7846692E42FCD00460013309
:1003A000F2E7C0460080004070B52D4E2D4C3368FA
:1003B0002D4D586800212C6001F026FA3368002189
:1003C000986801F021FA33680021D86801F01CFA1E
:1003D0002000FFF7E7FE2000FFF7E4FE8E228026D4
:1003E0000320224B9200995831439950196C814354
:1003F0001964196C19640221586C88435864586C4C
:1004000001435964232199609958B14399500122BD
:1004100017490139002910D1164C40212000FFF75F
:100420007FFE210000220120FFF7AAFF8023124A4D
:100430005B02D16F0B43D36770BDD8681042E8D020
:100440002C600324186F196FA043214301431967DF
:10045000596F91435967596F0A435A67DCE7C046A1
:1004600054000010006CDC02080000100080044002
:1004700040420F000101001004800440012180224D
:10048000F8B500242A4B494212029950294A2A48B9
:100490009C50FFF787FE0422284B294D1F68294BEB
:1004A00064211A70284B38001D6002F0DFFA0A261A
:1004B000264B274A013858619C61166007222C6040
:1004C0006C60AC60EC602C616C61AC61EC612C62C6
:1004D0006C62AC62EC621A6180221E4B5202D96FD0
:1004E0001D481143D967D96F0A43DA672021FFF706
:1004F00017FE3900194801F059F900F04FF8184C6F
:100500000100200001F052F9164801F04FF900F007
:100510004FF8154801F04AF932000621022000F098
:100520003FF80100200001F041F900F041F8FEE73A
:1005300000000150FC3F0000006CDC0208000010CD
:1005400044010010F00000107801001000E000E00D
:10055000EC000010048004400C000010FB2B000095
:100560003C2C00000E2C00001E2C000010B50100D9
:10057000014801F01BF910BDE92B000010B5010086
:10058000014801F013F910BDD82B000010B501008F
:10059000014801F00BF910BD342C000063207047B6
:1005A0000844FFF7F3FF4320FFF7E8FF7047C0461A
:1005B00000B50A2025490860254901318C466F465F
:1005C0006846803885462348834600F01DF80020A1
:1005D00021490860214E03E0DD0500003E68043734
:1005E00034680436236804341847043F3E602646C6
:1005F000604720B42568604720B42568604720B470
:1006000025685A46AD18604700210160C1608161CC
:100610000A210161124901621249C1611249416016
:10062000124981607047C0460000000000000000D1
:1006300000000000000000000000000000000000BA
:1006400000000000000000004A1600008C010010AD
:10065000E00500007C010010E002001054160000CC
:100660004A160000600300109C020010DC0200101B
:1006700008B40020202352004041401A03D54018FE
:100680005200404102E0520040410132013BF4D1AE
:1006900040080146104608BC00B5704730B500243C
:1006A0000025124301D552420134094301D5494284
:1006B0000135FFF7DDFFAC4200D04042012D00D1F3
:1006C0004942FFF753FF30BD08B4002020235200F9
:1006D0004041401A03D540185200404102E0520008
:1006E00040410132013BF4D140080146104608BCAC
:1006F00000B570477047FEB541464A4653465C46D2
:1007000065463EB401F06CF83EBCAC46A3469A4642
:1007100091468846FEBDFEB541464A4653465C4674
:1007200065463EB401F028F83EBCAC46A3469A4666
:1007300091468846FEBDFCB542464B4654465D4652
:1007400066467CB4034600228A4222D0FFF7E3FFCC
:100750000D2800D11DE008280CD1002AF4D0044651
:10076000FFF7C9FF2020FFF7C6FF2046FFF7C3FFB2
:10077000013AE9E7092805D120209854FFF7BBFF8B
:100780000132E1E72028DFD49854FFF7B4FF0132AB
:10079000DAE710467CBCB446AB46A2469946904682
:1007A000FCBD012100000000AD07000001BC286075
:1007B00020BC60470123C046A2070000C10700001B
:1007C000604702233E00C046B4070000D107000086
:1007D000604702237300C046C2070000E107000023
:1007E0006047042374696200D2070000F10700002B
:1007F00020B4014D6047C046E00200100127C0460A
:10080000E20700000908000060478128FC0700009B
:10081000150800006047012A0A08000021080000AE
:1008200001BC45436047022A2F00C046160800005D
:10083000350800006047052A2F4D4F442608000068
:10084000450800006047012B3608000051080000F1
:1008500001BC05446047022B2100C0464608000049
:100860006508000001BC29684018286020BC60476A
:10087000852B4C4F4F50C0465608000081080000A1
:100880006047012C700800008D0800006047012DB2
:10089000820800009908000001BC451B6047092D33
:1008A000747261696C696E6782080000B1080000AB
:1008B0006047012E9E080000BD0800006047822EA0
:1008C0002200C046B2080000CD0800006047822E1A
:1008D0002800C046BE080000DD0800006047012F68
:1008E000CE080000E9080000294601BCFFF7D6FE4B
:1008F00005466047042F4D4F4400C046DE08000007
:1009000005090000294601BCFFF7C8FE02B40546F0
:10091000604702303C00C046F40800002109000096
:1009200000202D4300D5C0430546604702303D00FE
:100930002C0900003909000000202D4300D1C043DC
:100940000546604702303E002C09000051090000B6
:1009500000202D4301D500D0C04305466047023139
:100960002B00C046440900006D09000001356047B6
:1009700002312D005E0900007D090000013D604745
:1009800002322B00700900008D090000023560471B
:1009900002322D00800900009D090000023D6047E1
:1009A00002322F0090090000AD0900006D10604771
:1009B00002322A00A0090000BD0900006D1960473D
:1009C00002322100B0090000CD09000001BC2860FE
:1009D00001BC686020BC604702324000C0090000D2
:1009E000E5090000686801B42D686047053244528B
:1009F0004F50C046D8090000FD09000020BC20BCB3
:100A00006047043244555000EC090000110A000010
:100A100001BC20B401B4604705324F564552C04670
:100A2000020A0000290A000004BC02BC01BC01B497
:100A300002B404B420B40D46604705325357415008
:100A4000180A0000490A000004BC02BC01BC04B43E
:100A500020B401B40D466047013AC0463A0A00008E
:100A6000650A00006047813B580A0000710A0000D7
:100A70006047013C660A00007D0A0000002104BCBA
:100A8000AA4200D0C9430D466047023C2300C0463D
:100A9000720A0000990A00006047013D8A0A0000BE
:100AA000A50A0000002104BC954200D1C9430D46AF
:100AB0006047013E9A0A0000BD0A0000002104BC04
:100AC000954200D0C9430D466047053E424F445908
:100AD000B20A0000D90A000004356047033E494EBF
:100AE000CA0A0000E90A000020B458462D186047E1
:100AF000073E4E554D424552DC0A0000010B0000F6
:100B00006047023E5200C046F00A0000110B000090
:100B1000284620BC3860043F6047043F44555000DD
:100B2000020B0000290B00002D4300D120B46047C8
:100B30000140C0461A0B00003D0B00002D686047C5
:100B40000541424F5254C046300B0000EB050000F7
:100B50002415000048150000F81100008641424F9E
:100B600052542200400B00006D0B0000604703410F
:100B70004253C0465C0B00007D0B00002D4300D5A6
:100B80006D42604706414343455054006E0B0000E0
:100B9000950B0000294601BCFFF7CDFD05466047D7
:100BA00005414C49474EC046840B0000B10B000084
:100BB000604707414C49474E4544C046A00B0000E2
:100BC000C50B00000CE505414C4C4F54B20B000026
:100BD000D50B0000604703414E44C046C60B0000E1
:100BE000E50B000001BC054060470442415345004D
:100BF000D60B0000F90B000020B4014D6047C04641
:100C00001000000085424547494EC046EA0B0000EF
:100C1000150C0000604702424C00C046040C000066
:100C2000250C00002020FFF766FD604703424C4B77
:100C3000160C0000390C0000604705424C4F434B36
:100C40002C0C0000490C00006047064252414E4304
:100C50004800C0463A0C00005D0C00003668604752
:100C600006425546464552004A0C0000710C0000F1
:100C7000604702432100C046600C0000810C000068
:100C800002BC0D7020BC604702432C00720C0000B7
:100C9000950C0000604702434000C046880C0000ED
:100CA000A50C00002878054660470543454C4C2BB1
:100CB000960C0000B90C000060470543454C4C53AE
:100CC000AA0C0000C90C0000AD0060470443484175
:100CD0005200C046BA0C0000DD0C0000604705431E
:100CE0004841522BCC0C0000ED0C0000604705433E
:100CF00048415253DE0C0000FD0C000070E4054337
:100D00004D4F5645EE0C00000D0D000060470643A8
:100D10004D4F56453E00C046FE0C0000210D000020
:100D2000604707434F4D50494C45C0460E0D0000EB
:100D3000350D0000604708434F4E5354414E540058
:100D4000220D0000490D0000604707434F4E5645F5
:100D50005254C046360D00005D0D0000604705434B
:100D60004F554E544A0D00006D0D00002878013596
:100D700020B40546604702435200C0465E0D0000A5
:100D8000850D000060470643524541544500C0466A
:100D9000760D0000990D0000604702442B00C0460C
:100DA000860D0000A90D000001BC02BC04BC10446B
:100DB0004D4101B4604702443C00C0469A0D00001A
:100DC000C50D0000604707444543494D414CC046AE
:100DD000B60D0000D90D000002480A215A461150F4
:100DE0006047C046100000000B444546494E495438
:100DF000494F4E53C60D0000FD0D000060470544ED
:100E000045505448E80D00000D0E000060470744AF
:100E10004E4547415445C046FE0D0000210E0000DE
:100E2000604782444F00C0460E0E0000310E0000A5
:100E3000604705444F45533E220E0000410E00001E
:100E400060470444524F5000320E0000510E000023
:100E500020BC604703445550420E0000610E000064
:100E600020B4604784454C534500C046540E0000F2
:100E7000750E0000604704454D495400640E0000A3
:100E8000850E00002846FFF736FC20BC60470C4565
:100E90004E5649524F4E4D454E543F00760E00007F
:100EA000A50E00006047084556414C554154450089
:100EB0008E0E0000B90E00006047074558454355A7
:100EC0005445C046A60E0000CD0E0000284620BCAA
:100ED00003681847044558495400C046BA0E00003C
:100EE000E50E000060470745585045435400C04692
:100EF000D40E0000F90E000001BC2946FFF71BFCD0
:100F000002495A46505020BC6047C04614000000B9
:100F10000446494C4C00C046D40E0000210F00008E
:100F200060470446494E4400100F0000310F000096
:100F3000F0B40327FF43B8461F272E785C46114BB9
:100F40001B191C783C40B44207D12200985CA95C74
:100F5000884202D1013A09D0F7E7231D44462340D5
:100F60001B68002BEDD12846002106E01846012120
:100F7000027880231A4200D04942F0BC01B40D46E9
:100F80006047C0462000000005464C555348C04607
:100F9000220F0000990F0000604706464F52474558
:100FA0005400C046880F0000AD0F000060470546A2
:100FB0004F5254489A0F0000BD0F0000604708468A
:100FC0004F5254482D383300AE0F0000D10F0000AF
:100FD000604706464D2F4D4F4400C046BE0F0000EF
:100FE000E50F00006047044845524500D20F00005D
:100FF000F50F0000604704484F4C4400E60F000026
:101000000510000060470149F60F000011100000B4
:10101000604782494600C0460610000021100000CB
:10102000604709494D4D454449415445121000005F
:1010300035100000604706494E5645525400C046E0
:101040002210000049100000ED436047014AC046ED
:1010500036100000591000006047034B4559C04648
:101060004C1000006910000020B4FFF754FB054647
:101070006047854C454156455A10000081100000DC
:101080006047874C49544552414CC046721000009D
:10109000951000006047C0469D10000020B43568E0
:1010A00004366047044C4F414400C04682100000A3
:1010B000B51000006047844C4F4F5000A410000052
:1010C000C51000006047064C534849465400C046CE
:1010D000B6100000D910000004BCAA4015466047B5
:1010E000024D2A00C6100000ED1000006047034DBD
:1010F0004158C046E0100000FD10000004BC9542BD
:1011000000D415466047034D494EC046EE1000001E
:101110001511000004BCAA4200D415466047034DD7
:101120004F44C046061100002D1100006047044DD9
:101130004F5645001E1100003D1100006047064E4D
:10114000454741544500C0462E1100005111000092
:101150006D426047034E4F543E1100006111000084
:10116000ED436047024F520054110000711100001E
:1011700004BC15436047044F5645520064110000FB
:101180008511000020B4019D604703504144C046D2
:1011900076110000991100005A460249521820B4F5
:1011A0001546604724000000045049434B3AC046AE
:1011B0008A110000B9110000604708504F53545085
:1011C0004F4E4500A8110000CD1100006047073FB9
:1011D0004252414E4348C046BA110000E11100009E
:1011E0002D4301D1366800E0043620BC604704512D
:1011F00055495400CE110000EB05000070150000A9
:101200005C15000098100000000000008013000032
:10121000A8070000BC1300005C0E0000981000003E
:10122000800000004813000080130000380B00000D
:1012300034090000DC11000040120000800D0000A5
:10124000580C00001412000002523E00EE11000083
:1012500055120000604702524000C046481200008C
:101260006512000060470752454355525345C0463A
:101270005612000079120000604706524550454161
:101280005400C046661200008D12000060470452F0
:101290004F4C4C007A1200009D1200006047035230
:1012A0004F54C0468E120000AD12000004BC02BCB8
:1012B00004B420B40D4660470652534849465400D2
:1012C0009E120000C912000004BCD54060470253C2
:1012D0002200C046B8120000DD1200006047035330
:1012E0003E44C046CE120000ED12000060470C5391
:1012F0004156452D4255464645525300DE120000E8
:10130000051300006047045349474E00EE120000E9
:1013100015130000604706534D2F52454D00C0463F
:101320000613000029130000604706534F5552432F
:101330004500C046161300003D13000060470553EA
:10134000504143452A1300004D13000060470653E7
:10135000504143455300C0463E1300006113000056
:101360006047045350414E004E130000FF0500003B
:1013700014000000055354415445C0466213000058
:101380008513000020B4D74D6047045357415000E7
:10139000741300009913000004BC20B41546604784
:1013A000845448454E00C0468A130000B113000023
:1013B000604703544942C046A0130000C113000017
:1013C00020B4C94D6047045459504500B213000081
:1013D000D513000004BC0020854207D0815C01B415
:1013E0000846FFF788F901BC0130F5E720BC6047EB
:1013F00002552E00C6130000FD1300006047025581
:101400003C00C046F01300000D1400006047035577
:101410004D2AC046FE1300001D140000604706550B
:101420004D2F4D4F4400C0460E14000031140000F3
:10143000604706554E4C4F4F5000C0461E140000EA
:1014400045140000604705554E54494C32140000C5
:101450005514000060470655504441544500C046AD
:101460004614000069140000604708564152494183
:10147000424C4500561400007D14000060470A5697
:101480004F434142554C41525900C0466A14000036
:10149000951400006047855748494C457E1400006C
:1014A000A5140000604704574F52440096140000F2
:1014B000B5140000604703584F52C046A614000000
:1014C000C514000004BC55406047015BB614000021
:1014D000D51400006047025B275DC046CA140000B7
:1014E000E51400006047065B434841525D00C0467A
:1014F000D6140000F91400006047895B434F4D503B
:10150000494C455DE61400000D1500006047015D83
:10151000FA140000191500006047C046025330005D
:101520000E150000FF05000004000000045553459F
:101530005200C0461C1500003D15000060470353D3
:101540005021C0462C1500004D15000004BC9546E6
:10155000604703535021C0463E150000611500004E
:1015600004BC1746604702523000C0460E1500000A
:10157000FF0500000800000004434F4C4400C04633
:1015800052150000EB05000098100000C832000062
:101590009810000038FFFFFFE4080000800E0000F4
:1015A000981000002C0000105C0E0000680900007C
:1015B00094130000A00C0000D0130000BC13000026
:1015C0009810000020000000F40E00006C130000D2
:1015D000380B0000BC1300009413000098100000AA
:1015E0000D000000800E0000981000000A000000AE
:1015F000800E0000D0130000580C0000BC15000045
:1016000064100000800E0000580C0000001600005E
:10161000D8050000EB050000981000005300000002
:10162000800E0000D8050000EB05000098100000B7
:101630003A000000800E000014160000D8050000DB
:10164000F30500007A0000006047056F757465724D
:101650000E150000841500009810000064000000C2
:10166000981000003E000000800E0000981000005E
:1016700048000000800E00009810000049000000A3
:10168000800E00009810000020000000800E000076
:10169000780900005C0E000034090000DC11000035
:1016A000601600009810000058000000800E000036
:1016B00098100000641900009810000064000000F9
:1016C000E4080000800E00008013000028160000CF
:1016D000281600001416000040160000800E0000BE
:1016E000D805000094010010E00200100A490B4ADE
:1016F0000B4B9B1A03DD043BC858D050FBDC094957
:10170000094A521A03DD00208850043AFCDAFEF739
:101710004BFEFEF7B3FE0000E02C000000000010BE
:10172000C4000010C400001070030010FEE7FEE7C4
:10173000FEE7FEE7FEE7FEE7FEE7FEE7FEE7FEE781
:10174000FEE7FEE7FEE7FEE7FEE7FEE7FEE7FEE771
:10175000FEE7FEE7FEE7FEE7FEE7FEE7FEE7FEE761
:10176000FEE7FEE7FEE7FEE7FEE7FEE7FEE7FEE751
:10177000FEE7FEE7FEE7FEE7074B10B51C68002C0E
:1017800005D0A369002B02D1200000F0CBFA6168DC
:10179000200000F079FB10BD5400001003008218F7
:1017A000934200D1704719700133F9E70FB40B4B26
:1017B00013B51C68002C05D0A369002B02D12000B2
:1017C00000F0B0FA05AB049AA1682000019300F084
:1017D000C9FC16BC08BC04B01847C0465400001031
:1017E000084B70B51C680500002C05D0A369002BC0
:1017F00002D1200000F096FA2900A268200000F033
:1018000055FF70BD540000104A424A41802310B574
:101810005200DB0000F002F810BD0000F0B51D0022
:101820004F4B85B01E6804000F000092002E05D0BB
:10183000B369002B02D1300000F074FA494B9C428E
:1018400050D17468009B022B05D0012B00D984E095
:10185000002D00DA81E02100300000F0E1F9616B39
:10186000002908D023004433994202D0300000F010
:10187000A9FB002363630023A3616360A3891B06A4
:1018800003D52169300000F09DFBA389364A13403F
:10189000A381009B022B5AD003AB02AA2100300087
:1018A00000F020FBA3891843A081002D24D1029DC4
:1018B000280000F07DFB0195071E42D1029B019399
:1018C000AB4239D1012040420223A2891343A381B4
:1018D0000023A36023004733236023610123636156
:1018E00005B0F0BD214B9C4201D1B468AAE7204B62
:1018F0009C42A7D1F468A5E7002FD9D0B369002B8B
:1019000002D1300000F00EFA009B012B03D1A38915
:10191000009A1A43A2810820A38927602761656184
:10192000184018D0012018400023984211D06D4271
:10193000A360A5611800D3E7019800F039FB071EEA
:10194000C0D08023A289019D1343A381D6E7002044
:10195000BAE7A560C4E7A060C2E701204042BFE744
:1019600054000010682C00005CF3FFFF882C00007E
:10197000482C0000F8B505000E001400002804D023
:101980008369002B01D100F0CDF9224B9C422DD16F
:101990006C68A369A360A3891B0731D52369002B59
:1019A0002ED023682269F7B2981A6369F6B298427A
:1019B00005DB2100280000F033F9002826D1A368B8
:1019C0000130013BA36023685A1C22601F706369C9
:1019D000984204D0A389DB071AD50A2E18D121001A
:1019E000280000F01DF9002812D00FE00A4B9C429D
:1019F00001D1AC68CDE7094B9C42CAD1EC68C8E77D
:101A00002100280000F00CF80028CAD001267642F8
:101A10003000F8BD682C0000882C0000482C000025
:101A2000364B70B51D6806000C00002D05D0AB6963
:101A3000002B02D1280000F075F9314B9C420FD1E8
:101A40006C680C23E25E93B219072DD4D90611D429
:101A500009230120336037331343A381404270BD13
:101A6000284B9C4201D1AC68EBE7274B9C42E8D164
:101A7000EC68E6E75B0713D5616B002908D023000B
:101A80004433994202D0300000F09CFA0023636393
:101A90002422A3899343A3810023636023692360E5
:101AA0000823A2891343A3812369002B0BD1A02112
:101AB0008022A389890092000B40934203D0210029
:101AC000300000F037FA0123A289134011D000231F
:101AD000A36063695B42A361002023698342BED196
:101AE0000C23E25E1306BAD540231343A3810138C9
:101AF000B5E7920700D46369A360EDE754000010D6
:101B0000682C0000882C0000482C0000F7B58A895A
:101B100005000C00130760D44B68002B04DC0B6C31
:101B2000002B01DC0020FEBDE76A002FFAD0002365
:101B30002E682B6080235B011A4034D0606DA3892E
:101B40005B0706D56368C01A636B002B01D0236C5A
:101B5000C01A0200216A00232800E76AB847A18959
:101B6000431C06D12B681D2B31D82C4ADA40D307F1
:101B70002DD50023636023692360CB0405D5431C66
:101B800002D12B68002B00D16065616B2E600029AB
:101B9000C8D023004433994202D0280000F012FA42
:101BA00000206063BFE70123216A2800B847431C77
:101BB000C5D12B68002BC2D01D2B01D0162B01D113
:101BC0002E60AFE74023A2891343A381ABE74023F4
:101BD0000B430120A3814042A5E70F69002FA1D04C
:101BE0000B680F60DB1B01930023920700D14B6948
:101BF000A360019B002B00DC94E7019B3A00216A63
:101C00002800A66AB047002803DC4023A2891343BA
:101C1000DFE7019B3F181B1A0193EAE70100402010
:101C20000B6970B505000C00002B01D1002070BDC0
:101C3000002804D08369002B01D100F073F80B4B0E
:101C40009C4209D16C680C22A35E002BEED02100CF
:101C50002800FFF75BFFEAE7054B9C4201D1AC6827
:101C6000F1E7044B9C42EED1EC68ECE7682C0000F5
:101C7000882C0000482C000010B5011E05D1054B32
:101C80000549186800F0DEF810BD044B1868FFF72E
:101C9000C7FFF9E7442C0000211C0000540000108D
:101CA00010B5024900F0CEF810BDC046211C00005E
:101CB000002310B5040003604360836081814366A4
:101CC000C281036143618361190008225C30FFF720
:101CD00065FD054B24626362044BA362044BE3621F
:101CE000044B236310BDC0469D270000C52700009C
:101CF000FD2700002928000070B568254A1E5543BD
:101D00000E002900743100F0A7F9041E08D000214C
:101D10002A00016046600C30A0606832FFF73EFD8B
:101D2000200070BD836913B50400002B28D18364A3
:101D3000C3640365134B144A1B6882620193984283
:101D400001D101238361200000F020F860602000B1
:101D500000F01CF8A060200000F018F80022E060FD
:101D600004216068FFF7A4FF01220921A068FFF7A2
:101D70009FFF02221221E068FFF79AFF0123A3616F
:101D800013BDC046442C0000A11C0000F8B51E4B3A
:101D900007001E68B369002B02D13000FFF7C2FFB5
:101DA0004836B4687368013B04D53368002B07D00C
:101DB0003668F6E70C22A55E002D0DD06834F2E7F8
:101DC00004213800FFF798FF30600028F0D10C2381
:101DD00004003B602000F8BD012320005B42E3814A
:101DE0000233A38165662560A56065602561656134
:101DF000A561082229005C30FFF7D0FC6563A5636C
:101E0000A564E564E6E7C046442C0000F7B5483019
:101E1000040000260191002C01D13000FEBDA56810
:101E20006768013F01D52468F5E7AB89012B07D925
:101E30000E22AB5E013303D02800019B9847064376
:101E40006835EEE7F7B50400070000260191483435
:101E5000002C01D13000FEBD6368A5680093009B93
:101E6000013B009301D52468F2E7AB89012B08D927
:101E70000E22AB5E013304D029003800019B984745
:101E800006436835EBE7000070B505000C0000283C
:101E900004D08369002B01D1FFF744FF0E4B9C4215
:101EA0000AD16C686368013B6360002B0EDA210085
:101EB000280000F031FC70BD084B9C4201D1AC6899
:101EC000F0E7074B9C42EDD1EC68EBE723685A1C26
:101ED00022601878EFE7C046682C0000882C0000CC
:101EE000482C000070B50E001D000E23C95E90B096
:101EF0001400002907DA00232B60B3891B0611D4D4
:101F00008023DB000FE001AA00F0BAFC0028F2DB1E
:101F1000F022029B12021340054A9B185A42534179
:101F20002B60EDE740230020236010B070BDC04659
:101F300000E0FFFFF7B502268B8905000C00334255
:101F400006D0230047332360236101236361F7BD7B
:101F500001AB6A46FFF7C6FF00990700280000F0B2
:101F60007BF8002806D10C22A35E9A05EFD41E430D
:101F7000A681E6E70D4BAB628023A2892060134364
:101F8000A381009B20616361019B002B0AD00E237B
:101F9000E15E280000F086FC002803D00123A2891E
:101FA0001343A381A0893843A081D0E7A11C00007E
:101FB00010B5034B0100186800F04EF810BDC04684
:101FC0005400001070B50500002910D00C1F2368C4
:101FD000002B00DAE418280000F095FC1D4A136875
:101FE000002B05D163601460280000F08DFC70BDEB
:101FF000A34209D9216860188342F3D118685B684D
:1020000041182160EEE713005A68002A01D0A2426D
:10201000F9D919685818A0420BD120680918581826
:1020200019608242E0D110685268411819605A6004
:10203000DAE7A04202D90C232B60D5E721686018AB
:10204000824203D1106852684118216062605C606E
:10205000CAE7C04660030010032370B5CD1C9D4342
:10206000083506000C2D1ED20C25A9421DD83000C3
:1020700000F049FC254A14682100002919D1244C9C
:102080002368002B03D1300000F076FB206029008C
:10209000300000F071FB431C2CD10C233000336066
:1020A00000F032FC03E0002DDFDA0C233360002067
:1020B00070BD0B685B1B1AD40B2B03D90B60CC18BB
:1020C000256003E08C420ED163681360300000F09D
:1020D0001BFC200007220B30231D9043C31AE7D0BE
:1020E0005A42E250E4E74B6863600C00EEE70C00F4
:1020F0004968C2E70323C41C9C43A042E0D0211AD4
:10210000300000F039FB431CDAD1C6E76003001051
:1021100064030010936810B5013B9360002B05DA4F
:102120009469A34208DBCBB20A2B05D01368581C74
:1021300010601970C8B210BDFFF71CFCFBE7F8B5C2
:1021400006000F001400D518AC4201D1002007E0B2
:1021500021783A003000FFF7DDFF0134431CF3D152
:10216000F8BD0000F0B59FB006000F001400059305
:10217000002804D08369002B01D1FFF7D3FD7F4BEA
:102180009F425CD17768BB891B0762D53B69002BF6
:102190005FD0002306AD6B6120336B761033AB76D6
:1021A0000294029C2378002B5DD1029BE31A0493D6
:1021B0000DD0049B029A39003000FFF7C0FF431C8A
:1021C00000D1CCE06A69049B944663446B61237838
:1021D000002B00D1C3E00122002352426A6002A911
:1021E0005432521801342B60EB60AB601370AB6556
:1021F00021780522624800F07BFB631C9C46002886
:1022000035D12968CB0604D5532302AA20309B1868
:1022100018700B0704D553232B2002AA9B181870A3
:1022200023782A2B2CD000200A21099B2278303ACF
:10223000092A00D86BE000282AD0099328E0514BE6
:102240009F4201D1B7689EE74F4B9F429BD1F768F1
:1022500099E739003000FFF7E3FB002899D001200F
:1022600040421FB0F0BD252B9FD001349AE7444B6C
:102270002968C01A012383400B432B606446B7E7EB
:10228000059B181D1B680590002B3ADB09936446DB
:1022900023782E2B0BD16378621C2A2B3FD1059B10
:1022A00002341A1D1B680592002B35DB0793217839
:1022B0000322364800F01CFB002807D0334B2A6865
:1022C000C01A4023834013432B6001342178631CE0
:1022D00006222F480293297600F00AFB002844D0FA
:1022E0002C4B002B2FD12968059B0722C90528D527
:1022F0009B189343083305936B69039A9B186B6192
:102300004FE75B42EB6002230B432B60BFE74B437D
:1023100001349B18012089E701235B42C6E70023B3
:1023200014000A201A006B6021783039092903D97A
:10233000002BBCD00792BAE7424301345218012364
:10234000F2E70733D5E705AB00933A00124B2900BB
:10235000300000E000BF0390039B0133CCD1BB8968
:102360005B0600D57BE70B987BE705AB00933A0053
:10237000094B2900300000F07FF8ECE7682C0000E2
:10238000A82C0000882C0000482C0000AE2C000077
:10239000B22C0000000000003F210000F7B515003E
:1023A00001938A680B6900900C00934200DA1300D5
:1023B00022002B6043321278002A01D001332B60B7
:1023C00023689B0602D52B6802332B6006272368FF
:1023D0001F4027D0230043331B785A1E93412268A5
:1023E000920630D42200019943320098089EB047EB
:1023F000431C25D0062320682A68E1680340002595
:10240000042B03D18D1AEB43DB171D40A36822690F
:10241000934201DD9B1AED180027BD4220D1002018
:1024200010E00137E3682A689B1A9F42D2DA220043
:102430000123193201990098089EB047431CF0D13E
:1024400001204042FEBD3020E118433108702100D8
:102450005A1C45310978A218433202331170C1E782
:10246000220001231A3201990098089EB047431CAC
:10247000E6D00137D1E70000F0B58BB006920A0034
:1024800043320793059004920A7E0C00109B6E2A3B
:1024900000D18FE017D8632A2CD008D8002A00D1A9
:1024A00099E0582A54D026004236327029E0642A36
:1024B00001D0692AF7D121681A68080623D5111DB1
:1024C0001960156825E0732A00D188E008D86F2AC2
:1024D00029D0702AE7D1202209680A43226003E04C
:1024E000752A20D0782ADED1220078214532117059
:1024F0006C4A30E00E001A684236111D19601368EC
:102500003370012379E04906D9D5111D19600023E4
:10251000D55E002D03DA2D23049A6D421370624BB1
:102520000A2703932FE020681968050603D5081DC4
:1025300018600D6805E04006F9D50D68081D1860A3
:10254000ADB2594B082703936F2A18D00A2716E01B
:1025500045310A70544A03921A682168101D1860A8
:102560001568080622D5CB0702D520231943216020
:102570001027002D03D1202322689A4322602300D4
:10258000002243331A706368A360002B5CDB0422D3
:10259000216891432160002D58D1049E002B64D006
:1025A0002600039B42361B7833705EE04806DAD57E
:1025B000ADB2D8E709681A68080605D5111D19607B
:1025C000136862691A6006E04906F7D5111D1960A3
:1025D0001368A28A1A800023049E236154E01A68BB
:1025E000111D1960166800216268300000F080F942
:1025F000002801D0801B6060636823610023049A77
:10260000137041E02369320006990598079DA84799
:10261000431C43D0236800259B070FD4099BE06827
:1026200098423DDA18003BE0220001231932069956
:102630000598079EB047431C30D00135E368099ADE
:102640009B1A9D42F0DBE9E7002DA9D0049E2800EB
:10265000390000F091FA039B013E5B5C2800337067
:10266000390000F003FA051EF1D1082F09D12368C3
:10267000DB0706D563682269934202DC3023013E02
:102680003370049B9B1B2361079B09AA00932100C5
:10269000069B0598FFF782FE431CB3D10120404200
:1026A0000BB0F0BDCA2C0000B92C000070B50600BC
:1026B0000D001400002804D08369002B01D1FFF71E
:1026C00031FB124B9C4211D17468A368013BA3609B
:1026D000002B05DAA269934212DBEBB20A2B0FD072
:1026E0002368E8B25A1C22601D7070BD084B9C42E2
:1026F00001D1B468E9E7074B9C42E6D1F468E4E70E
:10270000220029003000FFF735F9EEE7682C0000C1
:10271000882C0000482C000070B505000C00002833
:1027200004D08369002B01D1FFF7FCFA0F4B9C42C8
:102730000ED16C682100280000F008F9002811D1A2
:102740006368013B636023685A1C2260187870BD7F
:10275000074B9C4201D1AC68ECE7064B9C42E9D1A7
:10276000EC68E7E701204042F1E7C046682C000032
:10277000882C0000482C0000002370B5064C050092
:102780000800236000F00EFA431C03D12368002BDD
:1027900000D02B6070BDC0466C03001070B50C00FB
:1027A0000E25495F00F0B2F8002803DB636D1B18AB
:1027B000636570BDA389024A1340A381F9E7C0464F
:1027C000FFEFFFFFF8B51F008B8905000C00160016
:1027D000DB0505D50E23C95E0022022300F074F844
:1027E000A389054A28001340A38132000E23E15E2D
:1027F0003B0000F01FF8F8BDFFEFFFFF70B50C00C5
:102800000E25495F00F060F8A389421C03D1054AF8
:102810001340A38170BD802252011343A3816065E0
:10282000F8E7C046FFEFFFFF10B50E23C95E00F0CA
:1028300015F810BD70B50500080011000022064C07
:1028400022601A00FDF79CFD431C03D12368002B76
:1028500000D02B6070BDC0466C030010002370B523
:10286000064C05000800236000F08CF9431C03D1DE
:102870002368002B00D02B6070BDC0466C03001095
:10288000002370B5064C0500080011002360FDF719
:1028900023FD431C03D12368002B00D02B6070BDA7
:1028A0006C030010002370B5064C0500080023607F
:1028B000FDF710FD431C03D12368002B00D02B60D3
:1028C00070BDC0466C03001070B505000800110013
:1028D0000022064C22601A0000F05CF9431C03D170
:1028E0002368002B00D02B6070BDC0466C03001025
:1028F000C9B28218904201D10020704703788B4200
:10290000FBD00130F6E770477047000070B5050056
:10291000080011000022064C22601A00FDF7E2FCBC
:10292000431C03D12368002B00D02B6070BDC04630
:102930006C030010092210B5838913400022092B73
:1029400002D1FFF799F90200100010BDF8B505009B
:102950000C00002804D08369002B01D1FFF7E2F9B5
:102960003D4B9C420AD16C68002363600C23E25EFD
:1029700093B299060CD50120404268E0374B9C4247
:1029800001D1AC68F0E7364B9C42EDD1EC68EBE747
:1029900059074AD4D90605D409232B60373313438A
:1029A000A381E8E7082633420AD021002800FFF778
:1029B00037F90028DFD1A389A060B343A381A061C8
:1029C0000423A2891343A3812369002B03D121008F
:1029D0002800FFF7AFFA0C23E75EBEB2B3070FD0B3
:1029E0000123A3811F4B20491868FFF70FFA092321
:1029F000A7811E409E4203D121002800FFF786F8E0
:102A000023692269236028006369216A656AA847EF
:102A1000020060600020824219DCA189824217D145
:102A200020230B43A381013811E0616B0029CBD037
:102A300023004433994202D02800FFF7C3FA002054
:102A4000236C606363608342BED0E36B2360F8BD98
:102A5000402360600B43A3E7682C0000882C000033
:102A6000482C0000442C00003529000000224308B7
:102A70008B4274D303098B425FD3030A8B4244D346
:102A8000030B8B4228D3030C8B420DD3FF22090288
:102A900012BA030C8B4202D31212090265D0030B47
:102AA0008B4219D300E0090AC30B8B4201D3CB033D
:102AB000C01A5241830B8B4201D38B03C01A52417F
:102AC000430B8B4201D34B03C01A5241030B8B4281
:102AD00001D30B03C01A5241C30A8B4201D3CB026C
:102AE000C01A5241830A8B4201D38B02C01A524151
:102AF000430A8B4201D34B02C01A5241030A8B4254
:102B000001D30B02C01A5241CDD2C3098B4201D36B
:102B1000CB01C01A524183098B4201D38B01C01AE9
:102B2000524143098B4201D34B01C01A5241030960
:102B30008B4201D30B01C01A5241C3088B4201D30F
:102B4000CB00C01A524183088B4201D38B00C01ABC
:102B5000524143088B4201D34B00C01A5241411AE3
:102B600000D20146524110467047FFE701B50020F0
:102B700000F006F802BDC0460029F7D076E770479E
:102B80007047C04658220120014B40421A607047EE
:102B90006C03001058220120014B40421A6070471C
:102BA0006C030010044A1368002B03D0181810603F
:102BB00018007047014BF9E768030010700300101C
:102BC000F8B5C046F8BC08BC9E467047F8B5C0468C
:102BD000F8BC08BC9E467047656D697474696E6781
:102BE000205F5F25635F5F0A00666F727468206E06
:102BF000756D626572202578200A00435055204685
:102C000072657175656E63793A2025640A004361C7
:102C10006C6C696E6720666F727468200A0052657A
:102C20007475726E65642066726F6D20666F727463
:102C300068200A0073686F77696E67202564200A30
:102C4000000000005800001000000000000000001C
:102C50000000000000000000000000000000000074
:102C60000000000000000000000000000000000064
:102C70000000000000000000000000000000000054
:102C80000000000000000000000000000000000044
:102C90000000000000000000000000000000000034
:102CA0000000000000000000232D302B2000686C85
:102CB0004C0065666745464700303132333435365F
:102CC0003738394142434445460030313233343598
:102CD00036373839616263646566000000000000C1
:102CE000F100001010000000006CDC0248656C6C04
:102CF0006F20576F726C642049204C6F76652059A5
:102D00006F752100000000000000000027466F7270
:102D1000746841524D20302E3120286329203230F2
:102D200031372057696C6C69616D205220436F6F99
:102D30006B650D0A5800001000000000682C0000B0
:102D4000882C0000482C000000000000000000005B
:102D50000000000000000000000000000000000073
:102D60000000000000000000000000000000000063
:102D70000000000000000000000000000000000053
:102D80000000000000000000000000000000000043
:102D90000000000000000000E9000000C100000089
:042DA000000000002F
:04000003000016EDF6
:00000001FF
