:10000000A8010010F1000000E10C0000E10C00006C
:10001000E10C0000E10C0000E10C0000E10C00002C
:10002000E10C0000E10C0000E10C0000E10C00001C
:10003000E10C0000E10C0000E10C0000E90500000B
:10004000E10C0000E10C0000E10C0000E10C0000FC
:10005000E10C0000E10C0000E10C0000E10C0000EC
:10006000E10C0000E10C0000E10C0000E10C0000DC
:10007000E10C0000E10C0000E10C0000E10C0000CC
:10008000E10C00009D010000E10C0000E10C00000B
:10009000E10C0000CD0B0000E10C0000E10C0000C1
:1000A000E10C0000E10C0000E10C0000E10C00009C
:1000B000E10C0000E10C0000E10C0000E10C00008C
:1000C00000B501460044084400BD0A200749086005
:1000D00003E0D70000003E680437356804362C681A
:1000E000043520473E602E46F7E70000040000106C
:1000F0000F4880F30988022080F31488BFF36F8FC4
:100100000C4880470C490D4A0D4B01E001C901C262
:100110009A42FBD100200B490B4A00E001C19142F9
:10012000FCD10A4880470A488047FEE77047000034
:10013000A80500102D010000600F00000000001055
:100140000400001004000010A40000102D010000A5
:100150001102000080B582B000AF78607B6800209B
:10016000191C002200F0CCF9C046002000F000FA73
:10017000031C002BF9D1BD4602B080BD80B500AF95
:10018000A023DA05A023D905034BCB5804215940FD
:10019000014BD150BD4680BDFC3F000080B582B010
:1001A00000AF164B1B687B60144BDB6A3B60144B43
:1001B0001B78012B13D1134B3A681A60104B0022A5
:1001C0001A700E4B05229A620E4B1A680E4B1B6872
:1001D000D31AB02253439A0A0C4B1A6008E00A4B18
:1001E0003A681A60064B01221A70044B06229A6282
:1001F000024B7A681A60BD4602B080BD0000014023
:10020000080000100C000010100000100400001086
:1002100080B588B002AF00237B61504B3B61002367
:10022000FB600023BB604E4B181C00F0F3FD4D4BF0
:1002300003200121002200F057FD031CBB60BB68B6
:10024000002B02D0032000F0BFFDBB68181C4549FD
:1002500000F020FE031C7B6000237B6102E07B69D1
:1002600001337B617A69404B9A42F8D93F4A3F4952
:100270008023CB588021490219438023D150A023E9
:10028000DA0580231B0201214942D150384A8023DC
:100290001B0201214942D150364B6420191C042213
:1002A00000F0CEF8344B0122DA60344A8023DB00C0
:1002B000101C01211A1C072300F062FA304A802327
:1002C0005B02101C30211A1C012300F059FA2C4B40
:1002D000181C01210A2200F027FB294B181C0521BC
:1002E00000F05CFB96239B01264A0092202201929B
:1002F000181C00210822012300F0B8FC224B181C16
:1003000000F078F8214B1B68181C00F047F800F04B
:100310008DF81F4B181CFFF71DFF0520FFF7D0FEBF
:10032000031C181C00F03AF8FA239B00181CFFF776
:1003300011FFFA235B000120191C012200F0E0F8F4
:10034000144B0120191C00F033F9134B1B68181CC7
:1003500000F024F800F06AF8F7E7C04640420F00CA
:10036000006CDC02001BB7007F9698000080044000
:100370000000015054000010004004400080014083
:100380000000014084000010340F00000000001045
:10039000881300007D0100000400001080B584B0C7
:1003A00000AF7860114BFB60FB6800221A70FB689D
:1003B000013BFB607B68181C0A2100F0AFFD0B1CA1
:1003C0000B4AD25CFB681A707B68181C0A2100F08B
:1003D00061FD031C7B607B68002BE8D1FB68181C67
:1003E00000F008F8BD4604B080BDC04633000010E0
:1003F000380F000080B584B000AF786008E03B1C87
:100400000F331B78181C00F0CBFB7B6801337B603B
:100410003B1C0F337A6812781A703B1C0F331B7821
:10042000002BECD1BD4604B080BDC04680B500AF06
:100430000D2000F0B5FB0A2000F0B2FBBD4680BDE8
:1004400080B586B000AFF860B960FB1D1A70274B0D
:100450001B68181CF96800F01DFD031C3B61244B50
:10046000FA1D12781A70234BBA681A60224B3A6947
:10047000013A5A61204B00229A61FA239800F968E8
:1004800000F008FD031C1A1C1C4B1A6000237B6142
:1004900020E0184B19687A69131C5B009B189B00BD
:1004A000CB1800221A60134B19687A69131C5B0081
:1004B0009B189B00CB1800225A600E4B19687A6972
:1004C000131C5B009B189B00CB1800229A607B6971
:1004D00001337B61064B1B781A1C7B699A42D8D882
:1004E000054B07221A61BD4606B080BD0000001012
:1004F000480000104400001000E000E03800001048
:1005000080B584B000AFF860B960FB1D1A70164B5F
:100510001B781A1CFB689A4222D9144B1968FA6896
:10052000131C5B009B189B00CB18BA685A60FB1D1C
:100530001B78002B0AD00D4B1968FA68131C5B005E
:100540009B189B00CB18BA681A6009E0074B196822
:10055000FA68131C5B009B189B00CB1800221A60E2
:10056000BD4604B080BDC0464800001044000010E5
:1005700080B584B000AF78600023FB600A4B1B7825
:100580001A1C7B689A4209D9084B19687A68131CAF
:100590005B009B189B00CB185B68FB60FB68181C1A
:1005A000BD4604B080BDC0464800001044000010A5
:1005B00080B582B000AF78603960094B1B781A1C97
:1005C0007B689A4209D9074B19687A68131C5B004B
:1005D0009B189B00CB183A689A60BD4602B080BD5C
:1005E000480000104400001080B582B000AF534BAB
:1005F0001B683B60524B1B685A1C514B1A604F4B97
:100600001A68504B1B68D2184C4B1A604B4B1A6837
:100610003B689A4204D24C4B1B685A1C4A4B1A60E6
:1006200000237B6038E0494B19687A68131C5B0033
:100630009B189B00CB185B68002B2ADD434B196885
:100640007A68131C5B009B189B00CA183F4B186804
:1006500079680B1C5B005B189B00C3185B68191C56
:10066000384B1B68CB1A5360384B19687A68131CD7
:100670005B009B189B00CB185B68002B09DC334B9D
:1006800019687A68131C5B009B189B00CB1800222A
:100690005A607B6801337B602D4B1B781A1C7B688A
:1006A0009A42C0D800237B603FE0284B19687A68E3
:1006B000131C5B009B189B00CB185B68002B14D1AC
:1006C000224B19687A68131C5B009B189B00CB189F
:1006D0009B68002B09D01D4B19687A68131C5B00BE
:1006E0009B189B00CB189B689847184B19687A6831
:1006F000131C5B009B189B00CB185B68002B11D16F
:10070000124B19687A68131C5B009B189B00CA186F
:100710000E4B186879680B1C5B005B189B00C318B4
:100720001B6853607B6801337B60094B1B781A1C84
:100730007B689A42B9D8BD4602B080BD3C0000102B
:100740003400001038000010400000104400001079
:100750004800001080B582B000AF021CFB1D1A706B
:10076000064BFA1D1278111C1F220A400121081C99
:100770009040021C1A60BD4602B080BD00E100E05E
:1007800080B586B000AFF860B9607A603B60002346
:100790007B61FA685E4B9A421DD13A68012313408F
:1007A00002D05C4B02221A663A680223134002D040
:1007B000584B02225A663A680423134002D0554B24
:1007C00003229A66544A54498023CB588021194306
:1007D0008023D1505DE0FA68504B9A4217D13A68B5
:1007E0000123134002D04B4B01229A633A68022343
:1007F000134002D0474B8222DA66474A464980239B
:10080000CB588021490019438023D15041E0FA6838
:10081000434B9A4219D13A680123134003D03D4A11
:10082000A4230221D1503A680223134003D0394A4D
:10083000A8230221D150384A37498023CB58802140
:10084000890019438023D15023E0FA68354B9A423E
:100850001FD13A680123134002D02E4B8322DA675E
:100860003A680223134003D02A4A80238321D150BF
:100870003A680423134003D0264A90238321D150A1
:10088000254A25498023CB588021C900194380235C
:10089000D150BB685A1EFB68DA607B685A1EFB6841
:1008A0005A623A6807231A40FB685A67FB6880223D
:1008B000D2005A613A680123134007D07B69202295
:1008C00013437B61FB68012252429A613A6802231A
:1008D000134007D07B69802213437B61FB680122B0
:1008E0005242DA613A680423134008D07B698022BF
:1008F000920013437B61FB68012252421A62FB683B
:100900007A69DA63FB6801225A60BD4606B080BD91
:1009100000C000400040044000800440000001404E
:10092000004001400080014080B586B000AFF86013
:10093000B9607A60FB685A6A7B68D31A7B61FB688E
:1009400014495B185A425341DAB2FB6812495B18EA
:1009500059424B41DBB21343DBB2002B03D07B691E
:100960001B041B0C7B61BB68022B07D0042B09D036
:10097000012B0BD1FB687A699A6108E0FB687A6900
:10098000DA6104E0FB687A691A6200E0C046BD469D
:1009900006B080BD0000FFBF0040FFBF80B582B041
:1009A00000AF786039607A68164B9A4203D1164BD3
:1009B0000222DA6117E07A68144B9A4203D1124B93
:1009C00001225A610FE07A68114B9A4204D10E4A13
:1009D000A0230221D15006E07A680E4B9A4202D140
:1009E000094B83229A673A6807231A407B689A6208
:1009F0003A680123134002D01120FFF7ABFEBD4639
:100A000002B080BD00C00040004004400000014032
:100A1000004001400080014080B582B000AF021C60
:100A2000FB1D1A70064BFA1D1278111C1F220A407A
:100A30000121081C9040021C1A60BD4602B080BD16
:100A400000E100E080B588B000AFF860B9607A607E
:100A50003B600023FB610023BB6100237B614A4AAA
:100A6000A4231121D150484AA8230121D150474A3B
:100A700046498023CB588021490119438023D15016
:100A8000424A98230121D1507B68062B08D002D816
:100A9000052B19D013E0072B07D0082B0AD00EE046
:100AA000FB6901221343FB610FE0FB690222134340
:100AB000FB610AE0FB6903221343FB6105E0FB696C
:100AC00003221343FB6100E0C0463B68022B04D1C4
:100AD000FB6902221343FB6100E0C046BB68042BA4
:100AE00019D8BB689A002A4BD3181B689F46FB692C
:100AF00008221343FB6111E0FB6918221343FB61D9
:100B00000CE0FB6928221343FB6107E0FB693822F4
:100B10001343FB6102E0C04600E0C046FB6980224F
:100B20001343FB611B4BFA69DA60FB68DA001A4B6E
:100B30001B68D218FB681B01101C191C00F0AAF9D5
:100B4000031CBB61FB68154A9B18DA00FB681B019C
:100B5000101C191C00F09EF9031CBB61BB691B0A29
:100B60007B61BA69FF231340BB610A4BBA691A6003
:100B7000084B7A695A60074B064AD26880218A433B
:100B8000DA60BD4608B080BD0040044000800440EB
:100B90004C0F00000080004000000010808D5B00C2
:100BA00080B582B000AF021CFB1D1A70C046064B18
:100BB0005A6920231340FAD0034BFA1D12781A60A9
:100BC000BD4602B080BDC0460080004080B584B004
:100BD00000AF214B9A68BB1D1A80BB1D1A880C23DD
:100BE000134035D01C4B5B69BB602DE01B4B1B7861
:100BF000DBB21A1C3B1C0E3301321A80184B1B78D7
:100C00003A1C0E3212889A4203D13B1C0E3300224A
:100C10001A80144B1B78DBB23A1C0E3212889A42AF
:100C20000FD0114B1A680D4B1B78DBB2D2180A4B50
:100C30001B68DBB213703B1C0E331B88DAB2074B08
:100C40001A70054B5B69BB60BA6801231340CDD1B4
:100C5000BD4604B080BDC04600800040500000107A
:100C600049000010510000104C00001080B582B007
:100C700000AF7860081C111C1A1CFB1C1870BB1CF0
:100C800019707B1C1A70FB1C1978BB1C1A787B1C12
:100C90001B787868FFF7D6FE0C4B3A691A600C4B4C
:100CA0003A1C143212781A700A4B00221A700A4B3E
:100CB00000221A70094B07229A60084B07225A60DB
:100CC0001520FFF7A9FEBD4602B080BD4C00001004
:100CD000490000105000001051000010008000403A
:100CE00080B500AFFEE7C04680B588B000AFF860C1
:100CF000B9607A603B600023FB610023BB61FB6845
:100D00001F2B57D8BB68032B54D82D4A2C498E2350
:100D10009B00CB58802119438E239B00D150284B38
:100D2000274A126C03218A431A64254B244A116C0A
:100D30007868032202400A431A64214B204A526C0D
:100D400002218A435A641E4B1D4A526C02210A43F7
:100D50005A641B4BF9681F221140B86803220240F5
:100D600052010A439A60164A15498E239B00CB58BC
:100D70008021181C8843011C8E239B00D150114BED
:100D80007B6107E00E4BDA680123134002D0012398
:100D9000BB6105E07B69013B7B617B69002BF1D185
:100DA000BB69012B06D1FB6801333A685343FB61F1
:100DB00000F064F8FB69181CBD4608B080BDC04651
:100DC0000080044040420F0090B583B000AF7860CF
:100DD0000F4B0F4A116F0E4A126F0320141C8443ED
:100DE000201C7C680322224002430A431A67084BF6
:100DF000074A526F01218A435A67054B044A526FD2
:100E000001210A435A670023181CBD4603B090BD58
:100E10000080044080B586B000AF7860144B3B6121
:100E20003B691B68FB6000237B617B68022B02D857
:100E30007B687B610CE07A680E4B9A4208D97A682D
:100E40000D4B9A4202D801237B6101E002237B61B2
:100E5000FB681122191C91430A1C7B691A433B69E8
:100E60001A603B691B68181CBD4606B080BDC046B1
:100E700010C00340002D3101005A620280B500AF5E
:100E8000024B034A1A60BD4680BDC04600000010F8
:100E9000006CDC02002934D00123002210B4884207
:100EA0002CD301242407A14204D2814202D2090199
:100EB0001B01F8E7E400A14204D2814202D24900BA
:100EC0005B00F8E7884201D3401A1A434C08A0425D
:100ED00002D3001B5C0822438C08A04202D3001BF3
:100EE0009C082243CC08A04202D3001BDC0822430A
:100EF000002803D01B0901D00909E3E7101C10BC2E
:100F00007047002801D00020C04307B4024802A166
:100F10004018029003BDC046190000000029F0D01F
:100F200003B5FFF7B9FF0EBC4243891A1847C04604
:100F30007047C046463D00003031323334353637D5
:100F40003839414243444546000000001A0B000076
:100F5000EE0A0000F80A0000020B00000C0B000073
:040F6000006CDC0243
:04000003000000F108
:00000001FF
